:020000041000EA
:1000000000B5324B212058609868022188439860DF
:10001000D860186158612E4B002199600221596106
:100020000121F02299502B49196001219960352056
:1000300000F044F80222904214D00621196600F024
:1000400034F8196E01211966002018661A6600F04E
:100050002CF8196E196E196E052000F02FF8012189
:100060000842F9D1002199601B49196000215960AB
:100070001A491B48016001219960EB211966A021F2
:10008000196600F012F800219960164914480160C1
:100090000121996001BC002800D000471248134993
:1000A000086003C880F30888084703B5996A0420EC
:1000B0000142FBD001200142F8D103BD02B5186610
:1000C0001866FFF7F2FF186E186E02BD00000240BE
:1000D000000000180000070000035F00212200005C
:1000E000F4000018222000A00001001008ED00E03C
:1000F00000000000000000000000000074B24E7A12
:1001000000200420F7010010C3010010C5010010F9
:10011000C1010010C1010010C1010010C101001097
:10012000C1010010C1010010C1010010C701001081
:10013000C1010010C1010010C9010010CB01001065
:10014000CD010010CD010010CD010010CD01001037
:10015000CD010010CD010010CD010010CD01001027
:10016000CD010010CD010010CD010010CD01001017
:10017000CD010010CD010010CD010010CD01001007
:10018000CD010010CD010010CD010010CD010010F7
:10019000CD010010CD010010CD010010CD010010E7
:1001A000CD010010CD010010CD010010CD010010D7
:1001B000CD010010CD010010CD010010CD010010C7
:1001C00000BE00BE00BE00BE00BE00BEEFF3058054
:1001D000103800BEF2EB8871185800103C5800101F
:1001E0003402001090A31AE700201F49086006C8D7
:1001F00081F3088810471D48006800282FD10DA4FE
:100200000ECC002902D000F012F8F9E71849194A7B
:10021000002000E001C19142FCD1174988471749ED
:1002200088471749884700BEFDE701C901C29A42C5
:10023000FBD370473C580010C00000200C03002086
:10024000885A00100000042000000420885A001082
:10025000001004200010042000000000704709482E
:1002600002F06CFF0047000008ED00E0000000D045
:1002700010030020E40600204D1E0010990300101A
:100280000D1E00105756000006005250ABB36053CD
:10029000C052001006005250861C0302D0520010BB
:1002A000060052505422A29DD45200100500525014
:1002B000DE65F468885A0010F8B5C046064807495C
:1002C000091A8B10C90FC91810B5491003D0044B77
:1002D000002B00D0984710BD0C0300200C03002019
:1002E00000000000054B10B5002B03D00449054861
:1002F00000E000BFFFF7E2FF10BDC04600000000B5
:10030000980400208049001000B585B000236A469B
:1003100013737F2269464A7304480093023303AA89
:10032000202104F0C3FA05B000BDC046E802002059
:1003300000B585B00A236A461373C001507305489F
:1003400000230093023303AA202104F0AFFA05B082
:1003500000BDC046E802002030B585B00B226A44DB
:10036000092313700B4C083B00932021200004F05C
:100370009DFA03AD0023009301332A0020212000C1
:1003800004F0A0FA2B78DB0702D5012005B030BDC0
:100390000020FBE7E802002070B503F0B7FF19204A
:1003A00000F048F8D0231B06802292045A621348BA
:1003B000134904F04FFA0321042000F023F803212D
:1003C000052000F01FF8FFF79FFF04E0FFF7B0FFE4
:1003D000322000F074FFD02424068025AD0465612E
:1003E000322000F06CFFA561FFF7B6FF0128EDD0C9
:1003F0000028EDD1FFF79CFFEAE7C046E8020020A5
:10040000A086010010B58300084A944663441A6828
:1004100040246240803414408022520113431C6007
:10042000C000034B9C466044416010BD04C00140C5
:100430000040014010B501238340D0221206936290
:1004400093610521FFF7DEFF10BD0000034B1B6821
:1004500002201840431E9841C0B2704700C00640B9
:10046000EFF3108072B6034B1B68002BFBD0BFF379
:100470005F8F70472C0100D0BFF35F8F024B0022CB
:100480001A6080F3108870472C0100D0F8B5060080
:100490000C001500FFF7E4FFE308F718F15C0722F2
:1004A0002240012393400B4205D1DBB20B433B704A
:1004B000FFF7E2FFF8BD2100280001F043FD000036
:1004C000002307E0054A9A189200BFF35F8F0021CE
:1004D000116001331F2BF5D97047C046400000342E
:1004E000054A1078431CDBB21370172B02D9130096
:1004F00010221A707047C04638020020074B9B68D4
:10050000103080001950BFF35F8FBFF35F8F044B33
:100510000021196082F310887047C04600ED00E0AA
:10052000240100D010B50388DA0A1C2A05D15B0526
:100530005B1502335B00C01810BD034B034A04482F
:10054000B12101F067FCC04680490010C053001083
:100550009849001010B5091A0B1F0A4A88180A4A50
:10056000904208D8C90706D45B105B055B0D0748AD
:10057000184380B210BD064B064A0748A32101F07C
:1005800049FCC046FC070000FE0F000000E0FFFF32
:10059000D8490010B45300109849001010B5091A3A
:1005A00004394A08090B08D14905490D064B0B438C
:1005B0000380064B1343438010BD054B054A064894
:1005C000AB2101F027FCC04600F0FFFF00F8FFFF61
:1005D000084A0010885300109849001001238340F6
:1005E000034A10681840431E9841C0B27047C04685
:1005F00000E100E0002904D0034B1860034B1860B1
:100600007047034B1860FBE780E200E000E100E088
:1006100080E100E010B5012383401800FFF7EAFFF6
:1006200010BD0000024B9B6810308000C05870471E
:1006300000ED00E070B504000D00EFF3108672B617
:100640000C4B1B68002BFBD0BFF35F8F2000FFF724
:10065000E9FF094B984201D0A84205D13200290098
:100660002000FFF74BFF70BD044B054A054886216B
:1006700001F0D0FB240100D0CD010010184A001079
:10068000D053001098490010F0B5CE46474680B5CB
:1006900083B006000D00EFF3108872B64F4B1B6855
:1006A000002BFBD0BFF35F8F4D4B9A6834001034A2
:1006B000A300D7584B4B9F4207D0AF4200D18BE0ED
:1006C0000197494BFB1A2F2B09D9424639003000BC
:1006D000FFF714FF03B0C0BCB946B046F0BD300010
:1006E000FFF77CFF814600213000FFF793FFBFF347
:1006F0005F8FEFF30581002901D08C4211D10123D6
:10070000019C9C430020A368AB4212D00622A25653
:10071000002A0DDB53009B189B00334A2000D4189D
:10072000F1E7324B324A36213248FF3101F072FB99
:100730002000AB4249D106256557002D2BDB2A4B03
:100740006A00521992009B189A68A260DA79E271E5
:100750009B795BB2A371002B0FDA2748A080224B54
:100760006A00521992009B18244A117899711570E9
:1007700049463000FFF74EFFA7E7680040198000A8
:10078000194BC0180430FFF7CDFE0100231D1800DF
:10079000FFF7E0FEE2E7002912D100280ED0FF2388
:1007A0008371174B838015490B78A3710E4A154B43
:1007B000A41A644163431B0D0B70D9E7094FF2E79C
:1007C0001149201DFFF7EAFED2E7104B084A6A21C3
:1007D0000848FF3101F01EFB024F76E7240100D0EC
:1007E00000ED00E0CD0100103C020020504A001056
:1007F000A05300109849001001BD0000E106002040
:1008000001BDFFFFAAAA000076020020844A001062
:1008100070B5012202432E4BD31A2F2B28D8EFF3A9
:100820000583002B2BD0EFF3108C72B62949096891
:100830000029FBD0BFF35F8F254C274905002D1BF6
:100840006D416943090D4CB2244989689B00C95820
:1008500091421BD00021032932D81D4B4A00521867
:1008600092009B189B795BB2A3421FD00131F2E743
:100870001B4B1C4AC7211C48490001F0CBFA1B4BFB
:10088000184A92211848FF3101F0C4FA134A9268BD
:100890001749D150174B1A7882711C70BFF35F8FC4
:1008A0000C4B00221A608CF3108870BD084B4A0074
:1008B0005518AD005D19FF26AE710F4AAA80E9E711
:1008C0000E4B084AD1210848490001F0A3FAC0465E
:1008D0003C020020240100D0AAAA000000ED00E0A4
:1008E0008C4A00106C53001098490010B44A001054
:1008F000CD010010E106002001BDFFFFC04A00103D
:100900000022044B02E0044902C30132072AFAD94B
:100910007047C04600E400E080808080024B9C4627
:1009200061448900016070474000003410B5040044
:10093000FFF7D6FD01002000FFF7F0FFFF23237132
:10094000BFF35F8F10BD10B50400FFF7C9FD0100B4
:100950002000FFF7E3FFFF23237100236371BFF340
:100960005F8F10BD084B5B6A994209D8064A926AAC
:10097000824207D2994201D0012002E0002000E02B
:10098000002070470120FCE70040054010B5002919
:100990000AD003681B7B8B4206D38068054B9C46BC
:1009A00061440901401810BD034B044A04483C212E
:1009B00001F030FAFFFFFF0F544B0010E05400101D
:1009C000784B0010F8B504001700FFF7DFFF06684A
:1009D000456839002000FFF7D9FF0268436801200D
:1009E000AB4201D802D00020C0B2F8BDB242FBD861
:1009F000F9E7000010B5002B02DB0260436010BD78
:100A0000024B034A03483F2101F004FAB04B0010A7
:100A1000AC540010CC4B001010B582B00400049808
:100A2000059912184B41002B09DB6846FFF7E2FFDE
:100A3000009A019B22606360200002B010BD012279
:100A40005242014BF1E7C046FFFFFF7F10B500297E
:100A500008D0037B8B4205D300684B005B18033B37
:100A6000C01810BD024B034A0348682101F0D2F9B7
:100A7000144C001088540010304C001010B5437B0B
:100A80008B4201D1012010BDFFF7E0FF8378002BDE
:100A900001D10020F7E70120F5E770B50400857B60
:100AA000002D01D1280070BD2900FFF7CFFF43784A
:100AB000A373002B00D1E373002383704370037092
:100AC000F0E70000F8B506000C001500FFF7BEFFC8
:100AD0000700002C0DD0002D11D0AC4215D02900FC
:100AE0003000FFF7B3FF84703B78002B13D13D70CB
:100AF000F8BD0A4B0A4A0B486F2101F08BF90A4BEB
:100B0000074A0848702101F085F9084B044A054856
:100B1000712101F07FF943703D70E9E77C4C0010D2
:100B200064540010304C0010884C0010944C00109D
:100B300070B506000D001400002914D0002A14D04E
:100B4000436880689847002806D0220029003000BA
:100B5000FFF7B8FF280007E02A0021003000FFF768
:100B6000B1FF200000E0100070BD0800FCE70000AD
:100B700070B504000D1E0CD0FFF768FF00238370D2
:100B800043700370617B2A002000FFF7D1FF607380
:100B900070BD034B034A0448A52101F03BF9C04650
:100BA000AC4C001078540010304C001070B50400AC
:100BB0000D1E0FD0FFF762FF00280BD1E17B00294B
:100BC0000ED1A37B002B03D1E37B002B0DD1A573AA
:100BD000E57370BD084B094A0948F62101F01AF97E
:100BE0002000FFF733FF4570EBE7064B034A04484C
:100BF000FB2101F00FF9C046B04C00105454001016
:100C0000304C0010D44C001010B5002907D00368F8
:100C10001B7B8B4203D3C0680139401810BD034BC6
:100C2000034A0448412101F0F5F8C046544B001036
:100C300040540010784B001070B505000C000800FF
:100C400000F0C8FC0949200000F008FCFFF748FC50
:100C5000074B9C466044800068602C75D0231B06BF
:100C60001B786B75034BA400E55070BD850D00101B
:100C700040000034B00400200A4B1A68EFF31081E2
:100C800072B61368002BFCD0BFF35F8F054B1B6857
:100C9000BFF35F8F00221A6081F3108840BF0020ED
:100CA00000217047C406002010B582B0040000F097
:100CB00097FB02000B006846FFF79CFE009A019B21
:100CC00022606360200002B010BD70B584B00400E3
:100CD00016001D0002A8FFF7E7FF029A039B00968B
:100CE00001952000FFF798FE200004B070BD0000C1
:100CF000F0B583B0070001921D000AAB1C780BAB66
:100D00001E78002C0BD000682100FFF7B7FE0028EA
:100D100009D0194B194A1A48672101F07BF800687D
:100D2000FFF7BBFE0400002C02D1200003B0F0BD91
:100D300021003800FFF72AFE019B03604560089BF5
:100D40008360099BC36038682100FFF711FFA04250
:100D5000EBD1387D019A2B0000F0C8FB051E01D0B5
:100D6000002E04D00C9B002BDFD01D70DDE738680F
:100D7000210000F075FDF5E7E84C001094540010D8
:100D8000784B0010F0B5DE4657464E464546E0B576
:100D90008FB00B900021794B8200D458894683E0B4
:100DA00029002000FFF7F2FD804602684368921B8D
:100DB000BB41002B09DD43461A685B680B9800F0C5
:100DC00095FB0023984600268AE0002B01D1002ADB
:100DD000F1D10021584600F039FD0700A84215D195
:100DE00043461A685B680892099343469E68DB682D
:100DF0009846002E10D029002000FFF705FF037849
:100E000099461B021F432761002069E05C4B5D4A45
:100E10005D488E2100F0FEFF5C4B5A4A5A489221F1
:100E200000F0F8FF2369002B00D177E0BB4219D115
:100E300006980799002342428B4100920193089A39
:100E4000099B0CA8FFF7E8FD0C9A0D9B002104916B
:100E50000131039102954146019100962000FFF770
:100E600047FF16E04A4B474A4748A12100F0D2FF0E
:100E7000069A079B002B01D1002A52D12068290035
:100E8000FFF794FE29002000FFF7BEFE0378013330
:100E90000370002323616268BFF35F8F13608AF3DE
:100EA00010880120002861D00CA8FFF7FDFE0C9EE1
:100EB0000D9F00220023089209936268EFF3108AC5
:100EC00072B61368002BFCD0BFF35F8F23689B467C
:100ED0005D7B002D00D063E70023984600260020AC
:100EE0006368BFF35F8F00221A608AF31088002EB8
:100EF000D8D04B461F022F4341463800B0470690DA
:100F000007916268EFF3108A72B61368002BFCD069
:100F1000BFF35F8F079B002B00DA83E7079B002B53
:100F2000A6DD2369002BA9D0BB4219D10CA8FFF77D
:100F3000BBFE0C9A0D9B06980799009001910CA896
:100F4000FFF76AFD0C9A0D9B00210491013103917A
:100F500002954146019100962000FFF7C9FE98E7EF
:100F60000B4B084A0848A42100F054FF0FB0F0BC16
:100F7000BB46B246A946A046F0BDC046B00400201C
:100F8000104D0010C4540010784B0010284D001074
:100F9000344D001010B50C4B5B68002B04D00B488F
:100FA0000A21FFF7BBFC10BD074C094A206823004B
:100FB000102100F0B6FB032000F006FA0321200008
:100FC000FFF73AFEEBE7C04684020020C40600208B
:100FD000C509001010B5064B5B68002B01D0044812
:100FE00010BD044B044A05485E2100F013FFC046C3
:100FF00084020020704D001028540010784B00101F
:10100000F0B5DE4657464E464546E0B58DB0060083
:1010100090461F00169B9A46179B994618AB1B7863
:101020000793272302AA9446634400221A7021E002
:1010300001003000FFF7E8FD00783CE00698002B47
:101040005CD0079B002B59D04946D04704000D00C7
:1010500003000B4359D0002940DB08A8FFF724FE0A
:10106000089A099B0094019508A8FFF7D5FC089BF6
:101070009846099F7268EFF3108B72B61368594255
:101080004B41D9B20691002BF8D1BFF35F8F2733C4
:1010900002AA9446634404930023039302934B46AD
:1010A00001935346009342463B003000FFF720FE79
:1010B0000400051EBCD17368BFF35F8F0021196067
:1010C0008BF31088002D17D0272302AA944663447F
:1010D0001B78002BB2D100022043B0E7002362420C
:1010E000AB410092019342463B0008A8FFF794FCF5
:1010F000089B9846099FBDE7012040420DB0F0BC17
:10110000BB46B246A946A046F0BD0698F6E7F0B544
:10111000C64600B584B00500884616001F000AAB1D
:101120001C78FFF757FF0294019700962A00434668
:10113000FFF766FF04B080BCB846F0BDF0B5C64608
:1011400000B505000C1E42D04268EFF3108772B65E
:101150001368002BFCD0BFF35F8FE6B22B68984674
:1011600031001800FFF78AFC00282AD02B69A3421F
:1011700013D0240AE4B231002800FFF745FD0378BC
:10118000A34211D000206B68BFF35F8F00221A606A
:1011900087F3108880BCB846F0BD0E4B0E4A2C2158
:1011A0000E48FF3100F036FE3100404600F058FB9B
:1011B0000028E8D10A4B084A99210848490000F064
:1011C00029FE2B69A342DED100232B61DBE700203F
:1011D000E0E7C046944D001010540010784B00100A
:1011E000B84D001010B50400FFF7F4FE2100FFF722
:1011F000A5FF10BD30B587B004000D00EFF30583E7
:10120000002B20D106225242D31712196B418B4278
:1012100002D803D1824201D90022002304A8FFF79B
:10122000E9FB02A8FFF740FD02980399049A059B89
:10123000121A8B41002B0BDC08D02000290000F093
:10124000DBF807B030BD144800F07CFE002AF4D073
:10125000124A0498059900230093FFF758FF0028CD
:1012600013DAEAE70E4B1A68EFF3108172B61368CF
:10127000002BFCD0BFF35F8F094B1B68BFF35F8F60
:1012800000221A6081F3108820BF04980599FFF7A7
:1012900069FB0028E6D0D0E7BC4D0010790C0010A7
:1012A000C406002000B583B002000B006846FFF7BB
:1012B0000CFD00980199FFF79DFF03B000BD10B52C
:1012C000FA2292000023002102F0CAFDFFF7EAFF94
:1012D00010BD000030B583B005000C00EFF30583AE
:1012E000002B0FD10B4A00230093FFF710FF0028BB
:1012F0000BDD20BFFFF776FF28002100FFF732FB50
:1013000003B030BDFFF72EFBFAE728002100FFF7FE
:1013100029FBF5E7790C001010B5002B02DB026009
:10132000436010BD024B034A03483F2100F072FDA9
:10133000B04B001008550010CC4B001070B5EFF307
:1013400005801038EFF3108C72B6194B1B68002B18
:10135000FBD0BFF35F8F01221300834015494B631D
:1013600015490B60154909780C00C440224213D07E
:10137000104A546A124A8500AA58944205D3114A69
:10138000AA580E4C9943217007E00A4A031D9B009E
:1013900099589950002200E00022BFF35F8F044B60
:1013A000002119608CF31088002A00D0904770BD8E
:1013B000280100D0004005403C700540E2060020B6
:1013C000C80600201004002010B50100024A034B9B
:1013D0001800FFF75BF810BD0C4E0010E00600206F
:1013E000044B5B6A034A906A1900536A9942F9D127
:1013F0007047C04600400540084B5B6A01E0074B60
:101400005B6A8B42FBD301E0044B5B6A8B4203D1E6
:10141000024B9B6A8342F7D37047C04600400540A9
:10142000F0B583B004000D00FFF7DAFF06000F00EF
:1014300022002B0092197B41994202D804D190429C
:1014400002D901225242D3176846FFF765FF009880
:101450000199FFF7D1FF03B0F0BD000070B50400A3
:101460000E00EFF3108572B61B4B1B68002BFBD0F0
:10147000BFF35F8F002E1CD02000FFF7D3F8174B6F
:1014800083420BD019002000FFF7D4F8012120007F
:10149000FFF7C0F80123A340114A1360114BA400C9
:1014A000E650BFF35F8F0C4B00221A6085F3108863
:1014B00070BD0C4BA2000021D1500122A2400A496C
:1014C0000B7893430B7005492000FFF7DDF80021EE
:1014D0002000FFF79FF8E4E7280100D03D1300103B
:1014E0003860054010040020E2060020F0B5DE461A
:1014F00000B584B00400150001921E000293FFF7AE
:101500006FFF03958E4202D84ED185424CD9EFF33E
:10151000108B72B6274B1B68002BFBD0BFF35F8F7D
:10152000254A17780125A540EBB23B431370234BA6
:101530005D63221D92000199D150214AA1000298B9
:1015400088501B6A2B4212D11C4B1B6C2B4208D0BB
:101550000020BFF35F8F174B00221A608BF31088B7
:1015600023E0184B184A1948C52100F053FCFFF737
:1015700037FF8E4214D802D1039B834210D80E4B02
:101580001B78BB420ED00D4B1D625D631F222240B3
:10159000012393400E4A1360074B1F700120D8E7C8
:1015A0000020D6E70120D4E7012004B080BCBB4670
:1015B000F0BDC046280100D0E206002000400540F2
:1015C000C8060020304E0010EC540010544E00109D
:1015D00080E200E0EFF3108C72B60B4B1B68002B1F
:1015E000FBD0BFF35F8F01238340084A1362084991
:1015F0000A789A430A70BFF35F8F034B00221A6088
:101600008CF310887047C046280100D00040054088
:10161000E206002010B5002908D0037B8B4205D3D9
:1016200000684B005B18033BC01810BD024B034A17
:101630000348682100F0EEFB144C001060550010C8
:10164000304C0010F8B506000C001500FFF7E2FF63
:101650000700002C0DD0002D11D0AC4215D0290070
:101660003000FFF7D7FF84703B78002B13D13D701B
:10167000F8BD0A4B0A4A0B486F2100F0CBFB0A4B1E
:10168000074A0848702100F0C5FB084B044A05488A
:10169000712100F0BFFB43703D70E9E77C4C001006
:1016A0004C550010304C0010884C0010944C001029
:1016B00070B506000D001400002914D0002A14D0C3
:1016C000436880689847002806D02200290030002F
:1016D000FFF7B8FF280007E02A0021003000FFF7DD
:1016E000B1FF200000E0100070BD0800FCE770B5FD
:1016F00005000023437301338373037BC373012409
:1017000006E021002800FFF785FF0134E4B24470B1
:10171000297BA142F5D82800FFF77CFF0023437006
:1017200070BD10B5017342608360FFF7E0FF10BD2C
:10173000F0B5C64600B505000C1E03D1200080BCE4
:10174000B846F0BDFFF766FF4678002EF6D03100B0
:101750002800FFF75FFF4778002398464370210079
:101760002800FFF757FF434643703200210028004E
:10177000FFF79EFF040039002800FFF7D9FF0200A1
:1017800021002800FFF794FF0400D7E7F0B5C64614
:1017900000B504000D001700002927D0FFF73AFF1D
:1017A0004378002B28D18378002B2BD1017820009F
:1017B000FFF7BEFF06008046002F0AD0E17B00291C
:1017C00026D1A37B002B03D1E37B002B25D1A5736E
:1017D000E5734346002B26D129002000FFF71AFFAE
:1017E00000234370300080BCB846F0BD114B124A54
:1017F0001248382100F00EFB114B0F4A0F483A21D6
:1018000000F008FB0F4B0C4A0C483B2100F002FB98
:101810002000FFF7FFFE4570D3E70B4B064A074851
:10182000422100F0F7FA31002000FFF7F3FE002319
:101830008370D1E7984E001038550010A04E00106C
:10184000D84E0010004F0010D44C001070B50400AA
:101850000A00457B2900FFF799FF6073280070BDDF
:1018600070B506000C1E40D0437B8B4207D0FFF7BB
:10187000D1FE05008178002906D1002036E0012143
:10188000FFF7E4FF012031E03000FFF7C3FE0178ED
:10189000A1420DD03000FFF7BDFE4178A1420AD031
:1018A0000029F7D1124B134A13486B3100F0B2FAFA
:1018B0006B78037001E06B7843700023AB706B7042
:1018C000012221003000FFF761FF0200717B81429D
:1018D00005D03000FFF7ECFE7073012006E0074BE7
:1018E000044A0548712100F095FA002070BDC046F9
:1018F000C04A001020550010A04E0010244F0010C8
:1019000070B5046BE30701D4200070BD02003032D3
:10191000C0239B0113430A4A1A60456A836AAD01DA
:10192000ED18AD02062000F0BDF9064901F05AFCA1
:101930000100280001F056FC0021FFF771FDE3E7EC
:10194000010300004E0E000070B504000E001500EB
:10195000FFF7D6FF22002C32E36A5E403540802339
:101960005B0113431D60206370BD000070B505006E
:101970000C00062000F096F9C000210001F032FCB6
:10198000C60908D00E4B9E4216D87F230340013370
:1019900034005E0800E001246C62AE620022002187
:1019A0002800FFF7D1FF062000F07CF98000A1019C
:1019B000891901F017FC70BD0026024CECE7C04607
:1019C000FEFF0000FFFF000010B505394901013A94
:1019D000D2001143002B09D002220A43012B07D069
:1019E000002111436E22FFF7AFFF10BD0022F4E784
:1019F0000421F6E7002909D00A22064B9C466044E0
:101A000043425841044B4000C2527047802252006A
:101A1000F3E7C0460080FCBFD806002070B5050083
:101A20000C00062000F03EF9061E27D0164B9D4202
:101A300026D08022D203154B1A60154B1A60154B25
:101A40009B6811009943FAD100212800FFF7D2FFCB
:101A500021002800FFF78AFF060000230122082149
:101A60002800FFF7B1FF2A002C3280239B0113438B
:101A700010221A60084B2B630323AB64300070BD47
:101A800080221204D7E7C0460080034000E00040F7
:101A900000F0004000C0004001030000F8B5DE4641
:101AA00057464E464546E0B506000F0015000A9A17
:101AB000934250D31A0E92461B0298460A9A00236C
:101AC0004046514601F0CCFB81467400A419A400A5
:101AD0002F4B9C4664446368834200D26060331F8E
:101AE000DBB29B46012B3CD9C0239B0123438022C0
:101AF00012011A60274BB200D158002907D058694B
:101B000001F070FB013043001B18033BFDD26D0157
:101B100023685D40E0222A4080235B0123431A6052
:101B20005A46012A28D980239B012343802212018F
:101B30001A604B4663604A4600234046514601F016
:101B40008FFB144BB60098510120F0BCBB46B24647
:101B5000A946A046F8BD104B104A1148332100F0A9
:101B600059F9012FC0D1C0239B01234303221A60DE
:101B7000A368DB07FCD5CAE72168794003220A4045
:101B80001A60A3680125BD401D42FAD0CBE7C046CC
:101B90000080004028040020444F00106C550010C5
:101BA000584F001030B583B00C2000F011F9FEF74B
:101BB0004DFC00280DD0002304E02E4A99002E4849
:101BC00088500133092BF8D92A4B2C4A5A6203B0AA
:101BD00030BD2B4B00229A6700F002F9294B0122FD
:101BE0001A60274B5B6C012BFBD1274B03221A6039
:101BF000234B9B6B012BFBD1013300930433234A0E
:101C00000121234800F054F805230093214A0121C3
:101C1000214800F04DF8214B0093002202210420BE
:101C2000FFF73CFF1E4D00952B00002201210520EF
:101C3000FFF734FF104C00942300002200210720FE
:101C4000FFF72CFF00942300002200210820FFF75B
:101C500025FF0A4B00932300002200210920FFF7F3
:101C60001DFF00952B00002200210620FFF716FF24
:101C7000ADE7C04628040020006CDC021BB7000062
:101C8000008000403CB0004030B00040002F685958
:101C900000800240008C864700C00240001BB70055
:101CA00040597307014B8000C0587047280400203A
:101CB000F0B5C64600B504000E0017001D003748F9
:101CC00001F090FA8046364BFA18364B9A4239D8D2
:101CD0000100380001F086FA0200103A98235B00F8
:101CE0009A4235D86B1E062B38D8069B013B062B33
:101CF00034D83F09474537D32D04069B1B031D43AA
:101D00002368002B36DB284B9C4244D080235B01A8
:101D1000264A1360264A1360264A926819009143A6
:101D2000FAD12660A060221DC0239B01134321220B
:101D30001A602268002AFCDAE56008221A6080BC7A
:101D4000B846F0BD1C4B1D4A1D48112100F062F839
:101D50001C4B1A4A1A48192100F05CF81A4B174A12
:101D600017481C2100F056F8184B144A1448232138
:101D700000F050F822683F231340B342C3D1A36858
:101D80001B051B0D8342BED1E368EE22D202134035
:101D9000AB42B8D1D3E780239B01B9E7001BB70062
:101DA00080E84BD380F8A93200C0024000E0004038
:101DB00000F0004000C000409C4F00107C55001017
:101DC000FC4F00103C50001058500010A450001060
:101DD00080239B000343014AD36270470080054083
:101DE000064BAA2212011A602F22DA60044B054A20
:101DF0001A60024B5B68002BFBDA70470040024020
:101E00000060024000B0FA0000BEFDE710B5FFF729
:101E1000FBFF000030B583B00D001900002A0BD085
:101E2000074B084C019200932B000200200002F0A7
:101E300061FA0120FFF7E8FF034B1A00F1E7C04603
:101E4000C0500010D0500010CC50001070B52B4B7B
:101E50002B4A1A602B4B2C4A1A602C4B9A682A4B3F
:101E60009343FAD12A4C01E008CC9847294B9C4275
:101E7000FAD3FFF797FE234B274A1A60234B9B6840
:101E8000DB43DB01FAD1254B40229A675A671A6778
:101E9000DA66234C09E0234B234A24488721FFF7C5
:101EA000B9FF2000FEF742FD0834214B9C4209D2C5
:101EB0002368002BF5D0012BEDD12000FEF743FD68
:101EC0000834F2E71B4DA9681B4CC022200002F029
:101ED00081F8AC60EFF30583002B00D000BEFEF765
:101EE000EFFAFEF70DFDFFF755F8144C01E008CCB2
:101EF0009847134B9C42FAD370BDC04600E00040A7
:101F0000BFCDFBFE00F00040FE7F3C0000C0004063
:101F1000F802002008030020FFFFFF0100F001404D
:101F2000F0020020005100108855001020510010D0
:101F3000F802002000ED00E000000020080300206F
:101F40000C0300200FB400B583B0084802F0A2F9DA
:101F5000049B002B07D005A90191180002F0AAF9F3
:101F6000034802F097F90120FFF74EFF645100107B
:101F700074510010704710B5002802D00B684968F2
:101F8000984710BD0100002007E083001B185B008C
:101F9000501C08601078C01830380A681378303B3D
:101FA000DBB2092BF1D97047F0B5DE4657464E46F5
:101FB0004546E0B583B093461F000C9B9A460D9CA6
:101FC0000E9B99460F9B9B0703D0B8460F00060057
:101FD00022E00192A34688464E46B9460700B44225
:101FE00007D2551C4B4641462020B84701342A00F1
:101FF000F5E73D004F465C46019B9B46B146464691
:10200000B84637002E0007E0013C551C5346185DCA
:1020100043463900B0472A00002CF5D135003E0078
:1020200047460F9B9B0707D4100003B0F0BCBB468C
:10203000B246A946A046F0BDB0464E46B9462F006E
:102040005D46531BB342EFD2541C4B464146202001
:10205000B8472200F5E7F0B5CE46474680B585B0D3
:10206000944698460C9D0D9C0EAB1B789946109A91
:10207000119B129EB7071CD4002B0CD0F7070AD572
:102080004F46002F02D10C37374204D0013B02E00B
:1020900030272F550134944201D21F2CF8D9F7076D
:1020A00007D59C4205D21F2C03D830272F55013469
:1020B000F5E7F70612D5770505D4002C03D0944236
:1020C00021D09C421FD00F9A102A32D00F9A022A98
:1020D00037D01F2C0AD830222A5501341F2C05D89E
:1020E0004A46002A33D02D222A5501340396029302
:1020F0000194009543466246FFF756FF05B0C0BC09
:10210000B946B046F0BD621E012C10D00F9F102FB3
:102110000BD014000F9A102AD8D1B206D6D51F2C96
:10212000D4D858222A550134D3E7023CCBE7140017
:10213000C9E7B206EED41F2CECD878222A55013418
:10214000C7E71F2CD2D860322A550134C1E7720785
:1021500003D52B222A550134C8E73207C6D52022E1
:102160002A550134C2E7F0B5DE4657464E4645468D
:10217000E0B593B081468A46089209931CAB10CB18
:102180001B789B461E9D219B9846002C03D1102353
:1021900042469A4390468023DB0046461E40424614
:1021A0001A4212D0002C22D000260EE03033D9B2D1
:1021B000771C0AAB99552900200001F013F8AC42B6
:1021C00016D31F2F14D83E0004002900200001F070
:1021D00009F8CBB2092BE9D94246920605D541212F
:1021E000C918C9B20A39C9B2E2E76121F8E7270084
:1021F00043460693209B05931F9B049303955B46E0
:10220000029301970AAB0093099B089A51464846EE
:10221000FFF721FF13B0F0BCBB46B246A946A0466B
:10222000F0BDF0B5DE4657464E464546E0B597B0A0
:102230000A900B910C929A46209B9946219F22AAC4
:1022400013789B46249B0993259C289B98464A46D5
:102250003A4302D11032934398468022D200454639
:102260001540434613420AD04A463A4341D000251E
:102270002E0053460D934D46099B9A461BE02E00B7
:1022800053460D934D46099B9A4614E03033DAB21B
:10229000731C99460EAB9A5552462300280039000C
:1022A00000F0DEFFBC4226D819D04B461F2B1CD8AD
:1022B0004E4605000F00524623002800390000F06A
:1022C000CFFFD3B2092BE1D94246920605D5412270
:1022D000D218D2B20A3AD2B2DAE76122F8E7AA45B6
:1022E000E3D94E460D9B9A4608E04E460D9B9A4612
:1022F00004E0002602E04E460D9B9A4643460693B4
:10230000279B0593269B0493099B03935B460293AB
:1023100001960EAB009353460C9A0B990A98FFF75F
:102320009AFE17B0F0BCBB46B246A946A046F0BD27
:10233000F0B5DE4657464E464546E0B591B080467C
:1023400089460C929A461A9C1B9D22002B00200065
:10235000290001F010FA002800D0ECE001225242DE
:10236000D44B2000290001F001FA002800D0E2E05F
:1023700001225242D04B2000290001F0E1F900284F
:1023800000D0D8E0002200232000290001F0D8F975
:10239000002800D0E4E0069407958023DB001E9A15
:1023A0001A400D921E9A1A4201D106231C930698D8
:1023B000079902000B000892099303000A000243E8
:1023C00000D1D9E0080D4005400DBC4EB446604434
:1023D0000A03120B1E00BA4B13431F0001F0DEF973
:1023E000B84AB94B01F069F9B84AB94B01F03EF966
:1023F000089009910022B74B3000390001F02DF907
:10240000B54AB64B01F059F902000B00089809993A
:1024100001F02CF901F0DAF9834601F0BFF906006A
:102420000F00AF4AAF4B01F048F90022AE4B01F06C
:102430001DF901F0CBF90890AC4AAD4B30003900E2
:1024400001F03BF906000F00089801F0A7F9A94A2E
:10245000A94B01F032F902000B003000390001F005
:10246000FCF806000F0002000B0001F026F90A90AC
:102470000B91089BA14A94466344002100220891D5
:1024800009921B0509930023089332003B0030009A
:10249000390001F0EBF80E900F9132003B00002064
:1024A0008021C90501F0D9F806000F000022944BE5
:1024B0000A980B9901F0E3F80022924B01F0D6F84C
:1024C00002000B000A980B9901F0D9F800228E4BFC
:1024D00001F0CCF802000B000A980B9901F0CFF83C
:1024E00002000B003000390001F0C0F802000B00C0
:1024F0000E980F9901F0C3F80022714B01F0B6F865
:10250000089A099B01F0D9F806000F000896099770
:10251000069A079B01F02AF900282FD001235B427D
:102520009C46E3440022774B3000390001F0A7F8C5
:102530000890099122E01E9B04931D9B03931C9B12
:1025400002930094019553460C9A4946404600F088
:10255000FFF811B0F0BCBB46B246A946A046F0BD9C
:102560000021002206910792069480231B069C46B8
:10257000AC446346079310E700239B465B466333F6
:10258000C62B20D804261E9B1B0528D5089A099B1C
:10259000190011430FD05D4A5D4B0698079901F071
:1025A000DDF800287AD000225A4B0698079901F0EE
:1025B000C7F8002872D01C9B5B4506DD5A469B1A63
:1025C000013B1C9303E00526DDE700231C938023D9
:1025D000DB001E9A1A431E92002600239B461D9B79
:1025E0009E4265D29F1B02231E9A1A400A921E9A8F
:1025F000134202D0002E00D000275B46002B07D0EC
:10260000089A099B0698079901F039F806900791F6
:10261000002200232000290001F092F8002800D0B9
:102620007CE03D4B1E9A1340049303971C9B02933E
:10263000069B079C0093019453460C9A49464046DA
:1026400000F086F8002E00D183E71E9B9B0671D513
:102650004525441C5346020049462800C0475A46B7
:10266000D317D2185A4005230593013E0496002340
:1026700003930A3302935B46DB0F019300925346A8
:10268000220049464046FFF76EFD0A9B002B00D111
:102690005FE7020047460C9E1D9D53E01C9B002BEC
:1026A0009DD00D9B002B9AD01C9B013B1C9396E761
:1026B000002798E7FFFFEF7FFFFFEFFF01FCFFFF21
:1026C0000000F03FFB799F501344D33FB3C8608BA9
:1026D000288AC63F0000F83F61436F63A787D23F57
:1026E00071A379094F930A400000E03F1655B5BB2E
:1026F000B16B0240EF39FAFE422EE63FFF030000C5
:1027000000002C4000002440000018402D431CEB2A
:10271000E2361A3F80842E41FFF7FFFF069C079D9B
:102720002200290080200006844661440B000692A6
:10273000079376E765258CE7541C534649462020CD
:10274000B8472200931BAB42F6D3100001E7C04606
:10275000F0B5DE4657464E464546E0B595B0069084
:10276000079193469946209F1E9A1F9B10001900BF
:1027700001F001F8002831D101225242BF4B1E98CE
:102780001F9900F0DDFF002837D101225242BC4BD7
:102790001E981F9900F0EAFF00283DD10022B94B96
:1027A0001E981F9900F0E2FF002850D10022B64B7E
:1027B0001E981F9900F0C4FF002848D10022002372
:1027C0001E981F9900F0BCFF002850D100239846A6
:1027D000229B5B0500D4B6E0002458E0229B0393C3
:1027E000219B029303230193A84B00934B465A4627
:1027F00007990698FFF7D8FB0EE1229B0393219BD4
:10280000029304230193A24B00934B465A46079927
:102810000698FFF7C9FBFFE00423229A1A40229989
:102820000B4210D09B4B002A0FD004222299039117
:1028300021990291019200934B465A4607990698B6
:10284000FFF7B2FBE8E0944BEDE70322EEE7229BB3
:102850000493219B039302971E9B1F9C009301945A
:102860004B465A4607990698FFF762FDD4E01E9A38
:102870001F9B0020002100F0F0FE1E901F910123FD
:102880009846A5E70CAB30221A55013F01341F2CA6
:1028900001D8092FF6D81E981F9900F097FF050060
:1028A00000F07CFF02000B001E981F9900F0D5FE7F
:1028B0007A4BFA009B181A685B680A920B9300F037
:1028C000FCFE0890099100F0A5FF060000F062FFF1
:1028D00002000B000898099900F0BFFE08900991CA
:1028E00000226F4B00F042FF00282ED0013630004E
:1028F00000F050FF02000B000A980B9900F026FF31
:10290000002801D001350026002F2CD1280000F02E
:1029100045FF02000B001E981F9900F09EFE060066
:102920000F0000225E4B00F00BFF002846D1002272
:102930005B4B3000390000F019FF00283ED1EB0757
:102940003CD501353AE0062746E70022544B08986B
:10295000099900F0F5FE0028D6D1002E01D0F3072A
:10296000D2D50136D0E7AA461F2C11D8013F0A2143
:10297000300000F037FC651C30310CAB19550A21D2
:10298000300000F02FFC092E0ED906002C00EBE7DA
:1029900055461F2C0CD87B1E002F09D00CAA3021C5
:1029A00011551F000134F4E72B0055461C00F0E7D9
:1029B0001F2C03D80CAB2E221A5501341F2C10D813
:1029C0000A21280000F0E6FB661C30310CAB1955DB
:1029D0000A21280000F0DEFB051E01D03400EDE7DF
:1029E00034000323229A1340012B1CD01F2C06D83D
:1029F0004346002B32D00CAB2D221A550134229BBA
:102A00000393219B029301940CAB00934B465A46CF
:102A100007990698FFF7C8FA15B0F0BCBB46B24656
:102A2000A946A046F0BD219B002B13D04346002BA6
:102A300002D10C3313420FD0219B013B219319008B
:102A400003E00CAB30221A5501348C42CED21F2C3D
:102A5000F7D9CBE72199F8E72199F6E7229B5B07A5
:102A600004D50CAB2B221A550134C8E7229B1B0757
:102A7000C5D50CAB20221A550134C0E7FFFFEFFF8C
:102A8000FFFFEF7F65CDCD4165CDCDC184510010F5
:102A900088510010785100108051001038570010F4
:102AA0000000E03FF0B5DE4657464E464546E0B5ED
:102AB00093B08246884693461193002900D10DE3D6
:102AC00000255646119B1878002800D109E32528D7
:102AD00009D06C1C5B462A004146B047119B01336C
:102AE00011932500EEE701331193002720E0012325
:102AF0001F4301321192012418E002231F430132C7
:102B00001192012412E004231F4301321192012487
:102B10000CE008231F4301321192012406E0102328
:102B20001F4301321192012400E00024002C09D03F
:102B3000119A1378203BD9B21029F6D88B00C849D6
:102B4000CB589F46119B1A781300303BDBB2092B00
:102B500010D92A2A13D00B94119B1A782E2A1ED032
:102B6000119A1378683BD9B2122959D88B00BD4904
:102B7000CB589F4611A8FFF705FA0B90ECE71C9B7A
:102B80001A1D1C921B68002B04DB0B93119B013355
:102B90001193E1E7022217435B420B93F6E7802291
:102BA000D20017435A1C11925A781300303BDBB203
:102BB000092B0BD92A2AD3D11C9B1A1D1C921C68E5
:102BC000002C08DB119B01331193C9E711A8FFF713
:102BD000D9F90400C4E70024F4E780235B003B43F9
:102BE000511C119151786C2901D01F0018E0C023AD
:102BF0009B001F430232119212E080233B43511C81
:102C000011915178682901D01F0009E0C0231F43AA
:102C10000232119204E080235B001F4301321192C3
:102C2000119B1878672818D8252800D24CE2030099
:102C3000253BDAB2422A00D946E293008A4AD358A9
:102C40009F4680239B001F4301321192E8E78023B7
:102C50005B001F4301321192E2E7782800D933E28A
:102C6000692800D230E20200693AD2B201239340CF
:102C70007E4A134211D11A0600D500E25B0500D44A
:102C800022E21C9B1A1D1C921B689A46002C00D045
:102C9000B2E10122524253468EE16F280ED006D88F
:102CA00058283DD0622804D102239C4608E07828A9
:102CB00039D010239F43063B9C4601E008239C46E5
:102CC000582833D0692803D0642801D00C229743B8
:102CD0007A0501D50122974369282AD0642828D093
:102CE000BA0500D59FE0FA0500D5C1E07A0600D408
:102CF000D3E01C9A111D1C911168FF220A40059710
:102D00000B9B049303946346029300230193009268
:102D10005B462A0041463000FFF725FA050027E010
:102D200010239C46CCE710239C46C9E7202217437A
:102D3000C8E7BA0520D4FA0550D47A0666D51C9A9D
:102D4000111D1C911168FF220A40D0171118414033
:102D500005970B9B0493039463460293D20F019251
:102D600000915B462A0041463000FFF7FCF9050060
:102D7000119B01331193A5E61C9A073207218A4360
:102D8000110008311C91116853689946DB170C93A8
:102D90000D930C9A0D9B100048400E904A465340EC
:102DA0000F930E980F990C9A0D9B801A99410E90D3
:102DB0000F9108970B9B0793069463460493002397
:102DC00005934B46DA0F0292009001915B462A0070
:102DD00041463000FFF725FA0500C9E71C9A111D8E
:102DE0001C911268D0171118414005970B9B049352
:102DF000039463460293D20F019200915B462A002E
:102E000041463000FFF7AFF90500B1E73A0605D5B6
:102E10001C9A111D1C910023D25E96E71C9A111D6D
:102E20001C91126891E71C9A073207218A4311000E
:102E300008311C9108970B9B0793069463460493F3
:102E400000230593029353681268009201935B4636
:102E50002A0041463000FFF7E4F9050088E7C04644
:102E600098550010DC5500102856001041900000C5
:102E70001C9A111D1C9105970B9B049303946346A8
:102E8000029300230193136800935B462A00414696
:102E90003000FFF768F905006AE73A0606D51C9A84
:102EA000111D1C9112681204120C28E71C9A111DA6
:102EB0001C91126823E7462819D01C9B0733072270
:102EC00093431A0008321C9204970B9A03920294BF
:102ED0001A685B68009201935B462A004146300005
:102EE000FFF736FC0500119B01331193EAE520231F
:102EF0001F43E2E7672801D0472802D180231B0146
:102F00001F43452801D0472801D120231F431C9B84
:102F10000733072293431A0008321C9204970B9A36
:102F2000039202941A685B68009201935B462A0040
:102F300041463000FFF7FCF90500119B0133119366
:102F4000C0E502231A003A4091463B421DD00124BD
:102F50001C9B1A1D1C926F1C18785B462A00414668
:102F6000B0474B46002B14D1119B013311933D0008
:102F7000A8E5571C5B4641462020B04723003A0095
:102F80005C1C9D42F5D81500E2E701232A000B9D49
:102F9000F6E73A00B1460B9E06E0571C5B464146F9
:102FA0002020C8472C003A00651CA642F5D817001F
:102FB0004E46D9E701330A001978002902D0511E84
:102FC000002AF7D152469B1A8022D20039001140C4
:102FD0008946174202D0A34200D9230002221100E1
:102FE000394010913A4209D02A00250057469A46A6
:102FF00033004E46994621E022004CE62A00454621
:10300000A04606E0541C5B4629002020B0473B0048
:1030100022005F1C0B999942F4D84446A8463B0015
:10302000250057469A4633004E46994606E01D0055
:103030000137541C5B464146C847220038780028B7
:1030400004D0002EF4D06B1E002DF0D11500534695
:103050004E46109A002A03D1119B0133119331E59A
:103060000B9F2A0006E0551C5B4641462020B047D6
:1030700023002A005C1C9F42F5D81500ECE72123B1
:103080003B431C9A111D1C9112680593082304935D
:103090000394083302930023019300925B462A00B5
:1030A00041463000FFF75FF80500119B0133119393
:1030B00008E56C1C5B462A0041462520B047119B61
:1030C000013311932500FDE46C1C5B462A00414648
:1030D000B047119B013311932500F3E40A4B9A4644
:1030E000EEE4B2465D450DD35B465A1E5B46414653
:1030F0000020D047280013B0F0BCBB46B246A9461A
:10310000A046F0BD2A00F1E7751F001000B585B09C
:103110000290039101210448009313004A4202A93E
:10312000FFF7C0FC05B000BD771F00100148042167
:10313000014B1847B00200205D31001010B50100AE
:1031400018231B8814221088984710BD10B5010061
:1031500018231B8816221088984710BDF0B5C64664
:1031600000B507000E0000250123984600E0013558
:10317000B5420AD2AC003C192068FFF7DFFF20609F
:103180000028F4D100239846F1E7404680BCB846B9
:10319000F0BD0000124A936F9B0815D29066D1666D
:1031A000002905D0FFE7FFE7FFE7516F106F704779
:1031B00004B580210906C2175140002800D0C84339
:1031C00001F0CEFB002104BDF0B5146E556E576FB3
:1031D000166FFFF7E3FF1466556657671667F0BD75
:1031E000000000D0114A936F9B0813D210665166FD
:1031F000002905D0FFE7FFE7FFE7516F106F704729
:1032000004B5002801D00020C04301F0A9FB002133
:1032100004BDC046F0B5146E556E576F166FFFF7BC
:10322000E5FF1466556657671667F0BD000000D0CD
:1032300094464A4A926F9208624601D228E0C046FC
:10324000F0B5464E346E756E776F366F00F020F82D
:103250009446424A14665566576716676246F0BD43
:1032600094463E4A926F9208624601D254E0C046AC
:10327000F0B53A4E346E756E776F366F00F04CF8DD
:103280009446364A14665566576716676246F0BD1F
:10329000002B24DB11D000293EDA00B5C94340429F
:1032A00000D1013100F038F8C943404200D101316A
:1032B000DB43524200D1013300BD002AEBD100288C
:1032C00001D1002905D00020C90FC90701D1C04391
:1032D000410800B501F03CFB0022002300BD00B511
:1032E00000290ADBDB43524200D1013300F014F81D
:1032F000C943404200D1013100BDC943404200D121
:103300000131DB43524200D1013300F005F8DB43C9
:10331000524200D1013300BD002923D1002B18D126
:10332000002A0CD0BC460D4F38667A660021002377
:10333000FFE7FFE7FFE77A6F386F674670470028BF
:1033400001D00748010000B501F002FB0022002374
:1033500000BD02000B00002000217047000000D0DB
:10336000FFFFFFFF002B00D0BFE0130C28D1002A85
:10337000E7D080B4114F39667A66FFE7FFE730B4D3
:10338000040C7B6F396F1B0423433B667A66FFE7AF
:10339000FFE7FFE7C04684B27B6F3D6F1B0423430A
:1033A0003B667A66FFE7FFE7C04600232C042D0C3E
:1033B0007A6F386F00196941B0BC7047000000D0C7
:1033C000F0B594460025140E01D112020835140FF1
:1033D00001D112010435940F01D192000235D40FAE
:1033E00001D152000135D40B0134254F7C66254CA8
:1033F0003C660E0C93B2FFE7FFE7FFE73C6F6643C6
:10340000360C7703BE467343DF0B5B04C01AB94129
:10341000130C7343DB18C91ACE086643360CB64446
:1034200093B273431F0F1B01C01AB941130C7343AE
:103430001F0B1B05C01AB941860D8F023E43664320
:10344000360C092D24DB520A7243801A7703460A90
:103450006643360C16235B1BDE40DF40BF19644613
:103460006643821B7046043506330100D940A840EC
:10347000C01900D30131A24206D20023F0BD0000E2
:10348000000000D0FFFFFFFF121B0130F3D3F1E774
:1034900009277F1BFE406446A2B27243801A00D205
:1034A0000139220C7243130C1204821A99410B0049
:1034B0007046043513370100F940A840801900D345
:1034C0000131002B02D1A2420AD2F0BD013000D35B
:1034D0000131121BFAD2013BF8D1A24200D2F0BD59
:1034E000013000D30131121BF7E7F0B51C0C00D0FE
:1034F00080E00CB400251C0A04D11B02160E3343D5
:10350000120208351C0B04D11B01160F33431201A4
:1035100004359C0B04D19B00960F33439200023577
:10352000DC0B02D192185B4101351C0097186441F5
:103530000134464F7C66464C3C660E0CFFE7FFE7C5
:10354000FFE7C0463C6F6643360C7703BE4697B232
:103550007743C01B00D20139C01B00D201399FB292
:103560007743C91BC91B170C77437E04FF0B801BD5
:10357000B941CE086643360C0C2D33DBB644120B32
:103580001F053A431B0B97B27743C01B00D201398A
:103590009FB27743C91B170C77433E043F0C801B37
:1035A000B941860D8F023E43664329277F1BFE40AB
:1035B0000C3D7746AF40BF1930BCA2B2ABB27243EC
:1035C0007343801A9941220C7243130C1204801A1F
:1035D000994102000B000137001BA941F9D2781E66
:1035E0000021F0BD0C277F1BFE4077467F0BAF40CC
:1035F000FF19E0E700245D1C07D0144F7D66396693
:10360000FFE7FFE7FFE7FFE73C6F95B29EB2654338
:103610006643401BB141150C1E0C654366433604DE
:103620002F0C3E432D04401BB141994204D20200AD
:103630000B0020000021F0BD01D19042F7D3801A89
:10364000994101349942F2D3F6E70000000000D01E
:10365000FFFFFFFF48404140484018B41B4B5B68E8
:10366000FC46019308BD04DF3339001018B4174B32
:103670001B68FC46019308BD00DF3D3900109446ED
:10368000134A926F920809D2624618B40F4BDB6856
:10369000FC46019308BD0CDFF53B00100C4AF0B569
:1036A000146E556E576F166F6246FFF7EEFF084AAD
:1036B0001466556657671667F0BD18B4034B9B68D0
:1036C000FC46019308BD08DF993A0010C0040020B1
:1036D000000000D0FFB550404240504059404B40A0
:1036E000594000E0FFB5154F4C00640D03D0BC42BB
:1036F00004D10C0314D80020090D09055C00640DE9
:1037000003D0BC4204D11C030AD800221B0D1B05A8
:1037100001264B4009D44B4003D58B4200D1824255
:10372000FFBD9942FCD19042FFBD0B43DB18034320
:103730001343F5D0C9434918FFBD0000FF0700003F
:1037400000B5FFF7CFFF804100BDC04600B5FFF7D1
:10375000C9FF01D9002000BD012000BD00B5FFF761
:10376000B9FF01D9002000BD012000BD00B5FFF761
:10377000B1FF804100BD012040054A00121804D865
:103780005A00121801D8002070470120704700200D
:10379000704700000021002805D17047C11748403C
:1037A000401AFAD0C90713B5064B1B6898470CBCE2
:1037B000441CA2401005120B0349091B09051943BB
:1037C000114310BDC00500201F04000010B54C00BF
:1037D000620D8023D218DB00D21A5B057E2A10DD31
:1037E0009E3A13DACC170903490819435242D140D3
:1037F000640001341532202A05DAD04008436043C2
:1038000010BD002010BD0846604310BDC80FC01891
:10381000013810BD18B4044B5B6AFC46019308BD27
:1038200024DFA53D00100000C004002070B5132364
:103830001C78012C12D0012C12DC214B214A9364FC
:103840002148FFF77BFC214B186070BD1C491D4AC5
:103850009800815001331F2BF8D9ECE70023FAE7D9
:103860001B48FFF773FC05001A48FFF76FFC02388E
:1038700003789B007F2B09DD12488022290000F08D
:10388000A9FB022C08D0022CDADCD6E7124B134A33
:1038900013483221FEF7BEFA124B1A88B5231B02D9
:1038A0009A4209D1104B1A88104B9A4204D1104BFE
:1038B0001A88104B9A42E6D00020FEF743FBC04620
:1038C000F9380010C00400204C330000C00500206F
:1038D00053440000534600009051001088570010D8
:1038E000E451001054380000D83800004946000068
:1038F0009C3800005946000007B56046002800D1FA
:1039000000BE01880A0A0230DF2AFAD1C9B2820851
:1039100004D3028840880004104300E00068024A93
:103920005050039007BD0000C00400200FB403BC3A
:103930000CBCF0B50124E407634000E0F0B50C0DC9
:10394000CF0F661E3605891B640503D3C943404269
:1039500000D30131640D03D0661CF60A07D0E41BC6
:1039600000207F00791C89078912803C24031D0DEB
:10397000DF0F6E1E36059B1B6D0503D3DB435242E2
:1039800000D301336D0D03D06E1CF60A07D0ED1B7A
:1039900000227F007B1C9B079B12803D2D032F1B69
:1039A000661B58D4A446202E46DA20371400BC40AB
:1039B0001D00BD40F24033412A4380185941CB0FCE
:1039C00005D0C943C0430022644250415141624680
:1039D0004D0D28D10D0D07D100281FD024194041CD
:1039E0004941013A0D0DF9D0640006D3013000D3EE
:1039F0000131002C01D140084000013A0BD4941C45
:103A0000E40A04D112051144DB071944F0BDD907BB
:103A1000204B194300E0D9070020F0BD0029DDD17B
:103A2000002CDBD1F0BD0132C6074008CD0728438A
:103A30004908002EE1D0D9E73C2E29DA203E403754
:103A40001400BC4000D00124F24014431A00BB40D3
:103A50001C43D317ACE7AC46202F08DA203604000D
:103A6000B4400D00B540F84039412843A5E73C2F4C
:103A70000CDA203F40360400B44000D00124F84066
:103A800004430800B1400C43C117EAE710001900D5
:103A9000002494E70000F07FF0B50C0D661E36059B
:103AA000891BE60A6405640D02D0651CED0A04D08A
:103AB000002001210905803C2403A4461C0D671E3B
:103AC0003F05DB1BE70A6405640D02D0651CED0AA7
:103AD00004D0002201231B05803C2403774064446A
:103AE00097B484B296B27443070C7E43150C6F43AF
:103AF00080B26843361802D3012000043F18300416
:103B0000350C00197D41844688B29AB250430C0CA2
:103B100062431F0C7C438EB27E43921902D301266E
:103B20003604A4191604170C3618674101BC81B27B
:103B30009AB25143040C62431B0C5C4380B258435D
:103B4000121802D30120000424181004130C40188A
:103B500063412D185E410020474106BC88B293B2F4
:103B600058430C0C6343120C544389B251435B1805
:103B700002D301210904641819041A0C09186241BE
:103B80006D1856410020474118BCF902720D1143CF
:103B9000F0026A0D1043ED020A0D03D16D19404188
:103BA0004941013B124E9B1B7600B3420ED26D0081
:103BB00007D30130002671416646354301D14008E4
:103BC00040001B05C918E4072144F0BD0BDA01339E
:103BD00006D1013004D101314F0D01D04908F2E77F
:103BE000E1070020F0BD013631050020EBE70000C1
:103BF000FF030000F0B51C0D671E3F05DB1BE70A45
:103C00006405640D02D0661CF60A04D0002201236C
:103C10001B05803C2403D0252D060026F6432E6686
:103C20001E096E66CE0FF619B44649004F0D02D03C
:103C30007E1CF60A03D000200021403F3F033E1BBC
:103C4000B600B444013F7F05C91B49082E6F0136F9
:103C500076089C02950D25437543ED137543AD130E
:103C600001356D10F603761B0CB4CC02450D2C43C8
:103C7000A2B2B3B25A43270C7B43350C6F43A4B2B4
:103C80006C431B1902D3012424043F191C041D0C8E
:103C9000A4187D4124196D41009A91B2ACB26143E0
:103CA000170C7C432B0C5F4392B25A43A41802D3E7
:103CB00001221204BF182204230C52187B41019CDC
:103CC0006C431B19520ED9010A434401A01A81B258
:103CD000B2B2514303145A43360C734387B277434D
:103CE000D617D21900277E4136049B191704160CEB
:103CF0007F185E417316ED18F3010026803375417D
:103D0000A90F06D16400690AE8055B0A184309D2C5
:103D10002FE00422944480337541A90AA8059B0A28
:103D2000184326D3404149412404009A019B0D00C9
:103D30005543641B4343E41A95B286B27543170C8E
:103D40007E43030C5F4392B25A43B61802D301225A
:103D50001204BF183204330C52197B4152429C4169
:103D6000002C02D40022013051414008CA07104300
:103D7000490802B06246D7079210084BD218084B88
:103D80009A4203D212058918C919F0BD0020002AF1
:103D900001DC3900F0BD01331905F5E7FD03000032
:103DA000FE070000002200B5203200F004F80800F1
:103DB00000BD000000220B150AD410B5944600F097
:103DC00031F81414013400DA0021CB17144C2047C9
:103DD0000020002170476244343A0CD40C2A07DAE0
:103DE00004009140904052422032D440214310BD03
:103DF000D843D94310BD203207D40C4694405242D8
:103E000020321141D040204310BD0800C917203294
:103E100003D452422032104110BD1800190010BDC9
:103E2000D73D00100A0DCC0F531E1B05C91A5205B1
:103E300003D3C943404200D30131520D03D0531C78
:103E4000DB0A07D0121B00206400611C890789125D
:103E5000803A1203014BD21A70470000FF030000A2
:103E600051434343C9188C46110C83B24B4310B4E1
:103E7000040C614392B280B2504362431C041B0C99
:103E8000001910BC59411304120CC018514161446F
:103E90007047000070B513231E782A48FFF756F9C3
:103EA0000500012E11D0012E09DDAB1E1B789B00F1
:103EB0007F2B40DD24488022290000F08BF8234826
:103EC000FFF73CF9224B186070BD1F4854222900AF
:103ED00000F080F81F4B1A881F4B9A421CD1A72371
:103EE0009B011A881D4B9A4216D11D4B1A881D4BF7
:103EF0009A4211D11C4B1A8894239B019A420BD1F0
:103F00001A4B1A881A4B9A4206D11A4B1A681A4B46
:103F10009A4201D1152307E01848FEF713F8184C10
:103F2000094A99008C5001331F2BF8D9144B064ACB
:103F30001362D361B7E7134B134A14484221FDF7CC
:103F400069FFC04653460000C40500204C33000002
:103F5000C0050020EE290000C40F0000C20D0000C3
:103F6000962B0000C0B50000182B0000CC2A0000E2
:103F700010B50000FC2C000051ED8764CC500010FF
:103F8000913F00102C5200109C57001060520010FE
:103F900007B56046002800D100BE01880A0A023039
:103FA000DF2AFAD1C9B2820804D30288408800040B
:103FB000104300E00068024A5050039007BD000023
:103FC000C405002001480421014B1847C00200200D
:103FD0005D310010014B5B6818470000C0020020F3
:103FE00010B50300080011001B68984710BD0000C1
:103FF000F8B507000D001600437D002B02D0002409
:1040000000200CE003681100280098472DE03B7D5C
:1040100010E03B68154802219847601C0134B44207
:1040200014DA002CF3DD2B19013B1B780D3B5A42AF
:104030005341DBB22A5D0A2AF0D1002BEED1A04217
:10404000E7DA3B68211A28189847E2E7B04203DA1A
:104050003B68311A28189847002E06DDAD19013D3E
:104060002B780D3B5A4253413B75F8BDD457001095
:1040700070B505000368002B16D00C4B1C6805E0DA
:10408000290004C92000FFF7B3FF2469002C09D0E0
:104090002368002BF9D0064B1B68002BF0D0A342FD
:1040A000F3D1EDE700232B6070BDC04690040020E3
:1040B0009404002070B505000C000B68802B05D01F
:1040C00023685A1C2260E418257170BD0800FFF7B0
:1040D000CFFFF5E710B5002B02DB0260436010BD97
:1040E000024B034A03483F21FDF794FEB04B0010FA
:1040F000D8570010CC4B001010B582B00400FDF76B
:104100006FF902000B006846FFF7E4FF009A019B7D
:1041100022606360200002B010BD000070B582B064
:10412000060014001D00FA229200002306980021C8
:10413000FFF796FE02000B0012196B41002B09DB02
:104140006846FFF7C7FF009A019B3260736030003A
:1041500002B070BD01225242004BF1E7FFFFFF7F2A
:1041600030B585B004000D0002A8FFF7C5FF029A24
:10417000039B00952000FFF7D1FF200005B030BD64
:1041800000B583B0FA2189006846FFF7E9FF009A7D
:10419000019B024800F0ECFB03B000BDF0020020E0
:1041A00010B5024800F0CCFB10BDC046F002002064
:1041B000F0B5CE46474680B583B006000D00904668
:1041C0001C00FFF7DDFF81466B1C05D0002C08D0DA
:1041D000194F1A4B1C6807E0300000F07FFB050008
:1041E000F4E7174FF5E72469002C17D02368002B5C
:1041F000F9D0144B1B68002B01D0A342F3D12A0045
:1042000031002000B8474346002BECD06B46D91D47
:104210000A230B7001222000B847E4E74B46002B2D
:1042200007D16B1E9D41E8B203B0C0BCB946B04691
:10423000F0BDFFF7B5FFF4E7E13F00109004002068
:10424000F13F001094040020094A01E010331A00E5
:104250001368002B08D08342F8D1002907D10369E5
:1042600013600023036102E0002900D01060704752
:104270009004002010B5064B1C6801E098472469A3
:10428000002C03D06368002BF8D1F8E710BDC046BE
:104290009004002070B5050000F020FB040000230E
:1042A000012201002800FFF783FFFFF7E3FF200052
:1042B00070BD000070B5A2B004000E00FFF760FFF3
:1042C0000500002301930A483300220001A9FEF7EC
:1042D0001DFF040001A8FFF7CBFEFFF7CBFF002D69
:1042E00002D1200022B070BDFFF75AFFF9E7C046A7
:1042F000B54000100FB400B583B004A901C9019105
:10430000FFF7D8FF03B008BC04B0184710B500F0A1
:10431000FFF8012010BD000010B582B00C00144B56
:10432000C3185A425341134A5B009B5E8B4204D030
:104330006B46DA1D1470002115E06B46DA1D0D2363
:10434000137000210029F3D183699B06FCD41378F4
:10435000036001310132F5E783699B06FCD41378D1
:104360000360013101320029F6D002B010BDC04611
:104370000080FCBFD806002082B000226B46D91D09
:1043800006E08369DB06FCD403680B70013201315F
:10439000002AF6D06B46D87902B0704770B5060097
:1043A0000D00002405E0315D034B1868FFF7B4FFF2
:1043B0000134AC42F7DB70BDDC060020F8B5060026
:1043C0000D00002705E07C1CF719FFF7D5FF3870BA
:1043D0002700AF4204DA0E4A10688269D206F2D58D
:1043E0000C4A1268002A0CD0094A126850219163C5
:1043F00010003430526B18391140802252010243B0
:104400001160002F01D03800F8BD033FFBE7C04624
:10441000DC0600202004002010B5064B1B68002B92
:1044200006D0054A126800219163044A1068984733
:1044300010BDC04620040020DC060020240400201B
:1044400070B505000E001C4B1A681C4BD31859425E
:104450004B4114331C0000281ED0194B1B68002B45
:1044600004D0174B1D60174B1E6070BD164920000D
:10447000FCF7E0F801212000FCF7CCF80E4B1B689C
:1044800050229A63190034315B6B183A1A4080232A
:104490005B010B431A60E4E7094B1B68002BE0D07B
:1044A0000023936300212000FCF7B4F806492000A4
:1044B000FCF7EAF8D5E7C046DC0600200080FCBF28
:1044C00020040020240400201944001070B50D00C1
:1044D0001C000D4B1860002A0BDA002C0EDA0A4B78
:1044E00018682900FDF79AFA08480121FFF7ACFE89
:1044F00070BD02211000FBF785FFEEE702212000CE
:10450000FBF780FFEBE7C046DC060020D00200206E
:1045100010B5064B1B78064B1B78E12101230022C6
:1045200049020448FFF7D2FF10BDC04638580010BA
:104530003458001000400340F0B5DE4657464E4662
:104540004546E0B585B00700100098460EAB1B78D5
:1045500003930F9D109E3B680022DA663B6859600A
:104560003B680132DA660022002399460024C346E4
:104570004146029190462BE03A79002A31D001223F
:104580002FE00399002901D000212EE001212CE029
:104590003000A84703000443E4B2002B06D13A6878
:1045A000526BD20602D4002DF2D1F6E7002B09D1CE
:1045B0003A6880215158894600291FD1002C2FD1FB
:1045C000C2451ED0002C33D101229446E04401980C
:1045D000D8452DDA029A013A92464246002ACBD0BB
:1045E00000229202C245CCD0002149020A43411C5C
:1045F00001910078396802430A61D4E7526D0124C1
:104600000EE0039A002ADDD10AE03000A84703003B
:104610000443E4B2002B06D13A68526B920502D4EF
:10462000002DF2D1F6E7002BCCD13A68126EC9E723
:104630004246002C09D0002B11D14B46002B12D042
:10464000DB0714D44B461B0715D5039B3B711000A9
:1046500005B0F0BCBB46B246A946A046F0BD01235A
:104660005B421A00F1E702235B421A00EDE70223E6
:104670005B421A00E9E702235B421A00E5E7F0B566
:10468000DE4657464E464546E0B583B005009246A5
:10469000180001930CAB1A7893460D9E0E9F2B6861
:1046A0000022DA662B6859602B680132DA6681468F
:1046B000002398460024C8453FDA019A541E2A6810
:1046C000516F1029FBD0414600290BD000208002F9
:1046D00044450ED00021490208438021490001438E
:1046E000116118E02979002901D10020EFE70120AC
:1046F000EDE75946002901D00021ECE70121EAE766
:104700003800B04703000443E4B2002C15D12A68F6
:10471000916F002909D12A6880215158546D621E79
:104720009441E4B2002EEBD1EFE7126951460A70D2
:1047300001229446E044E244BDE7002C04D0002B63
:104740000CD001235B4298465B462B71404603B078
:10475000F0BCBB46B246A946A046F0BD02235B4270
:104760009846F1E7F0B5D6464F464646C0B5050037
:104770000C000520FDF796FA06006008801921005C
:10478000FEF730FD07004300994681440521484665
:10479000FEF728FD80463B1A9A46284B9C4224D8B7
:1047A000700080192649FEF71DFD441C4346023B5C
:1047B000A34221D32B680022DA6629680B680432F1
:1047C000534002321A4080235B010B431A602B686E
:1047D0005246DA612B6842461A624B464F2B11D97A
:1047E00050214846FEF7FEFC0DE070008019154987
:1047F000FEF7F8FC441CD9E7134B144A14485D211A
:10480000FDF708FB01202A68A023D0502B681A006E
:104810007C32DB6F5C402404240C80235B01134357
:104820001C602B680122DA6639003000FEF7DAFCE2
:10483000E0BCBA46B146A846F0BDC0463F420F00B4
:104840008096980040787D010C53001004580010A9
:104850002C53001010B5114B98421DD01022104B54
:104860001A60104B1A60104B9B6814009C43231E67
:10487000F9D104710268D46602686624FF341460BA
:104880000268D3630268936302688833633CFF3C29
:10489000D450FFF767FF10BD0822E0E7E8020020D0
:1048A00000E0004000F0004000C0004030B585B09E
:1048B00008AC25780024029401940095FFF73CFE93
:1048C00005B030BD30B585B008AC25780024029421
:1048D00001940095FFF7D3FE05B030BD10B58307F6
:1048E0000AD00300032102E001330B4205D01A78FD
:1048F000002AF9D1181A10BD030019680C4A0D4C92
:104900008A188A4322420FD15968094A04338A1807
:104910008A43224208D15968054A04338A188A43D7
:104920002242F1D000E001331A78002AFBD1E1E7FE
:10493000FFFEFEFE80808080F8B5C04600000000CB
:1049400001B40248844601BC604700BFC901002091
:1049500001B40248844601BC604700BF1502002034
:1049600001B40248844601BC604700BF1502002024
:1049700001B40248844601BC604700BF9501002095
:1049800030783163203D3D20282A696E7374293EBA
:104990003E313175000000002F55736572732F6929
:1049A0006368656E2F5069636F2F7069636F2D7335
:1049B000646B2F7372632F7270325F636F6D6D6FF4
:1049C0006E2F68617264776172655F6972712F69B9
:1049D00072712E630000000064656C7461203E3DBE
:1049E000202D323034382026262064656C746120F6
:1049F0003C3D203230343620262620212864656C48
:104A00007461202620312900212864656C7461209E
:104A10003E3E20313175290063757272656E7420D7
:104A20003D3D205F5F756E68616E646C65645F75A7
:104A30007365725F697271207C7C20637572726528
:104A40006E74203D3D2068616E646C6572000000EC
:104A500021657863657074696F6E207C7C20657851
:104A600063657074696F6E203D3D206E756D202BFF
:104A700020565441424C455F46495253545F495277
:104A80005100000066616C736500000069735F731C
:104A900068617265645F6972715F7261775F686196
:104AA0006E646C657228736C6F745F68616E646CA1
:104AB00065722900657863657074696F6E00000027
:104AC000666F756E64000000746F74616C000000A6
:104AD0002F55736572732F696368656E2F50696314
:104AE0006F2F7069636F2D73646B2F7372632F6305
:104AF0006F6D6D6F6E2F7069636F5F73796E632F6B
:104B00006D757465782E63006D74782D3E636F72D9
:104B1000652E7370696E5F6C6F636B006C6F636B97
:104B20005F69735F6F776E65725F69645F76616CF2
:104B30006964286D74782D3E6F776E657229000068
:104B40006D74782D3E656E7465725F636F756E74FB
:104B5000000000006964202626206964203C3D2076
:104B6000706F6F6C2D3E686561702D3E6D61785F72
:104B70006E6F6465730000002F55736572732F6943
:104B80006368656E2F5069636F2F7069636F2D7353
:104B9000646B2F7372632F636F6D6D6F6E2F70690F
:104BA000636F5F74696D652F74696D652E630000B6
:104BB00075735F73696E63655F626F6F74203C3DF0
:104BC00020494E5436345F4D415800002F557365CF
:104BD00072732F696368656E2F5069636F2F7069F8
:104BE000636F2D73646B2F7372632F636F6D6D6FC3
:104BF0006E2F7069636F5F626173652F696E636C9E
:104C00007564652F7069636F2F74797065732E6892
:104C1000000000006964202626206964203C3D20B5
:104C2000686561702D3E6D61785F6E6F64657300BD
:104C30002F55736572732F696368656E2F506963B2
:104C40006F2F7069636F2D73646B2F7372632F63A3
:104C50006F6D6D6F6E2F7069636F5F7574696C2F08
:104C6000696E636C7564652F7069636F2F75746905
:104C70006C2F70686561702E68000000706172654D
:104C80006E745F69640000006368696C645F6964E6
:104C900000000000706172656E745F696420213DE0
:104CA000206368696C645F696400000069640000E7
:104CB0006964202626202170685F636F6E746169C5
:104CC0006E735F6E6F646528686561702C2069641F
:104CD0002900000021686561702D3E667265655F80
:104CE0007461696C5F6964002170685F636F6E74E2
:104CF00061696E735F6E6F646528706F6F6C2D3EB7
:104D0000686561702C2072657573655F6964290040
:104D100072656D6F7665645F6964203D3D206E65E8
:104D200078745F696400000063616C6C6261636B3E
:104D300000000000706F6F6C2D3E616C61726D5FE2
:104D4000696E5F70726F6772657373203D3D206D91
:104D5000616B655F7075626C69635F696428696423
:104D60005F686967682C206E6578745F69642900E4
:104D700064656661756C745F616C61726D5F706FA4
:104D80006F6C5F696E697469616C697A6564282902
:104D900000000000616C61726D5F696420213D203C
:104DA000706F6F6C2D3E616C61726D5F696E5F70CC
:104DB000726F67726573730072630000417474658B
:104DC0006D7074656420746F20736C656570206904
:104DD0006E73696465206F6620616E206578636517
:104DE0007074696F6E2068616E646C65723B2075CB
:104DF000736520627573795F7761697420696620D5
:104E0000796F75206D7573740000000048617264DD
:104E10007761726520616C61726D20256420616C20
:104E2000726561647920636C61696D65640000007E
:104E300074696D65725F68772D3E696E74732026A4
:104E4000203175203C3C20616C61726D5F6E756D28
:104E5000000000002F55736572732F696368656EDB
:104E60002F5069636F2F7069636F2D73646B2F739D
:104E700072632F7270325F636F6D6D6F6E2F68613A
:104E80007264776172655F74696D65722F74696DA4
:104E900065722E6300000000726F6F745F696400BA
:104EA0002F55736572732F696368656E2F50696340
:104EB0006F2F7069636F2D73646B2F7372632F6331
:104EC0006F6D6D6F6E2F7069636F5F7574696C2F96
:104ED00070686561702E63002170685F6765745F3C
:104EE0006E6F646528686561702C20726F6F745FE7
:104EF0006964292D3E7369626C696E670000000069
:104F00002170685F6765745F6E6F646528686561AE
:104F1000702C20726F6F745F6964292D3E7061720E
:104F2000656E74006E65775F7375625F7472656538
:104F300020213D20686561702D3E726F6F745F693E
:104F4000640000007372635F66726571203E3D20ED
:104F500066726571000000002F55736572732F69CA
:104F60006368656E2F5069636F2F7069636F2D736F
:104F7000646B2F7372632F7270325F636F6D6D6F2E
:104F80006E2F68617264776172655F636C6F636BCB
:104F9000732F636C6F636B732E63000076636F5FB8
:104FA00066726571203E3D20285049434F5F504C4A
:104FB0004C5F56434F5F4D494E5F465245515F4BE4
:104FC000485A202A204B485A292026262076636FEB
:104FD0005F66726571203C3D20285049434F5F5009
:104FE0004C4C5F56434F5F4D41585F465245515FB1
:104FF0004B485A202A204B485A2900002F557365E8
:1050000072732F696368656E2F5069636F2F7069C3
:10501000636F2D73646B2F7372632F7270325F63D3
:105020006F6D6D6F6E2F68617264776172655F700E
:105030006C6C2F706C6C2E630000000066626469FB
:1050400076203E3D20313620262620666264697631
:10505000203C3D203332300028706F73745F6469E8
:105060007631203E3D203120262620706F73745FFC
:1050700064697631203C3D2037292026262028707F
:105080006F73745F64697632203E3D20312026269E
:1050900020706F73745F64697632203C3D2037293D
:1050A000000000007265665F66726571203C3D20FD
:1050B0002876636F5F66726571202F203136290074
:1050C0002C2066756E6374696F6E3A2000000000D4
:1050D000617373657274696F6E2022257322206676
:1050E00061696C65643A2066696C652022257322CB
:1050F0002C206C696E65202564257325730A0000D9
:1051000031203D3D202875696E747074725F74297A
:105110006C2D3E7370696E5F6C6F636B00000000F6
:105120002F55736572732F696368656E2F506963BD
:105130006F2F7069636F2D73646B2F7372632F729F
:1051400070325F636F6D6D6F6E2F7069636F5F722A
:10515000756E74696D652F72756E74696D652E63F9
:10516000000000000A2A2A2A2050414E4943202AE2
:105170002A2A0A000A000000666E692B000000005F
:10518000666E69006E616E00666E692D000000003B
:105190002A282875696E74385F74202A29726F6D09
:1051A0005F646174615F6C6F6F6B757028726F6D97
:1051B0005F7461626C655F636F6465282753272C99
:1051C0002027462729292D3229202A2034203E3D18
:1051D0002053465F5441424C455F56325F53495A13
:1051E000450000002F55736572732F696368656E03
:1051F0002F5069636F2F7069636F2D73646B2F730A
:1052000072632F7270325F636F6D6D6F6E2F706996
:10521000636F5F646F75626C652F646F75626C6538
:105220005F696E69745F726F6D2E63002A2828753E
:10523000696E74385F74202A29726F6D5F746162C1
:105240006C652D3229202A2034203E3D2053465FB4
:105250005441424C455F56325F53495A4500000065
:105260002F55736572732F696368656E2F5069637C
:105270006F2F7069636F2D73646B2F7372632F725E
:1052800070325F636F6D6D6F6E2F7069636F5F66F5
:105290006C6F61742F666C6F61745F696E69745FA7
:1052A000726F6D2E63000000446562756700000038
:1052B000626F6F74325F77323571303830000000C2
:1052C000312E352E310000007069636F0000000040
:1052D000687735004170722031312032303234002D
:1052E0005541525420737464696E00005541525404
:1052F000207374646F757400554152542073746444
:10530000696E202F207374646F7574007364615F1D
:1053100074785F686F6C645F636F756E74203C3D7A
:10532000206C636E74202D20320000002F557365B1
:1053300072732F696368656E2F5069636F2F706990
:10534000636F2D73646B2F7372632F7270325F63A0
:105350006F6D6D6F6E2F68617264776172655F69E2
:1053600032632F6932632E63000000006972715F3F
:105370006164645F7461696C5F746F5F66726565B8
:105380005F6C697374000000696E736572745F62AC
:1053900072616E63685F616E645F6C696E6B000062
:1053A0006972715F72656D6F76655F68616E646C5E
:1053B000657200006D616B655F6272616E636800AB
:1053C0007265736F6C76655F6272616E6368000010
:1053D0006972715F7365745F6578636C7573697604
:1053E000655F68616E646C65720000006D75746560
:1053F000785F6578697400006D757465785F656EB7
:105400007465725F626C6F636B5F756E74696C005C
:10541000616C61726D5F706F6F6C5F63616E63650D
:105420006C5F616C61726D00616C61726D5F706F59
:105430006F6C5F6765745F64656661756C740000AE
:105440006765745F656E7472795F69645F686967C8
:105450006800000070685F667265655F6E6F646506
:105460000000000070685F6164645F6368696C6479
:105470005F6E6F646500000070685F696E736572CF
:10548000745F6E6F6465000070685F6765745F6E5F
:105490006F6465006164645F616C61726D5F756EFD
:1054A0006465725F6C6F636B00000000757064610F
:1054B00074655F75735F73696E63655F626F6F7448
:1054C00000000000616C61726D5F706F6F6C5F61F6
:1054D0006C61726D5F63616C6C6261636B00000094
:1054E0006765745F656E747279000000686172644C
:1054F000776172655F616C61726D5F7365745F7413
:1055000061726765740000007570646174655F7531
:10551000735F73696E63655F626F6F740000000094
:1055200070685F72656D6F76655F616E645F6672ED
:1055300065655F6E6F64650070685F72656D6F763C
:10554000655F616E795F68656164000070685F61C6
:1055500064645F6368696C645F6E6F64650000001B
:1055600070685F6765745F6E6F646500636C6F631E
:105570006B5F636F6E66696775726500706C6C5FF8
:10558000696E69740000000072756E74696D655F04
:10559000696E697400000000122B00102A2B0010A5
:1055A0002A2B00101E2B00102A2B00102A2B001073
:1055B0002A2B00102A2B00102A2B00102A2B001057
:1055C0002A2B0010062B00102A2B0010FA2A00109C
:1055D0002A2B00102A2B0010EE2A0010FA2B0010A4
:1055E000202C0010422C0010202C0010DA2B001070
:1055F000202C0010202C0010202C0010202C00103B
:10560000202C0010202C0010202C0010162C001034
:10561000202C0010202C0010202C0010202C00101A
:10562000202C00104E2C0010B2300010C83000109A
:10563000C8300010C8300010C8300010C83000104A
:10564000C8300010C8300010C8300010C83000103A
:10565000C8300010C8300010C8300010C83000102A
:10566000C8300010C8300010C8300010C83000101A
:10567000C8300010C8300010C8300010C83000100A
:10568000C8300010C8300010C8300010C8300010FA
:10569000C8300010C8300010C8300010C8300010EA
:1056A000C8300010C8300010F42E0010B62E0010C4
:1056B000F42E0010C8300010C8300010C8300010A0
:1056C000C8300010C8300010C8300010C8300010BA
:1056D000C8300010C8300010C8300010C8300010AA
:1056E000C8300010C8300010C8300010C83000109A
:1056F000C83000109A2C0010C8300010C8300010BC
:10570000C8300010C8300010C8300010C830001079
:10571000C8300010C8300010C83000109A2C00109B
:10572000422F00109A2C0010F42E0010B62E0010FC
:10573000F42E001000000000000000000000F03F08
:10574000000000000000244000000000000059405C
:105750000000000000408F40000000000088C340AF
:1057600000000000006AF8400000000080842E4124
:1057700000000000D01263410000000084D7974170
:105780000000000065CDCD415F5F61656162695FCA
:10579000646F75626C655F696E6974005F5F6165F7
:1057A0006162695F666C6F61745F696E6974000045
:1057B00006005250D3F07542A85200100600525015
:1057C000E182887FB052001006005250BBFF3CB609
:1057D000C85200100D0A00007570646174655F7531
:1057E000735F73696E63655F626F6F7400000000C2
:1057F0000600525053B4F4A1F85200100800525061
:10580000920000006932635F7365745F6261756462
:085810007261746500000000E4
:10581800B0570010BC57001088020010C85700107D
:1058280094020010A0020010AC020010FC570010F7
:04583800F057001015
:10583C0003000068EFF3108C72B60268002AFCD0EB
:10584C00BFF35F8F04229A56002A0BDB002910D07D
:10585C000A6000201B68BFF35F8F00221A608CF374
:10586C0010887047D0221206127852B21A71012099
:10587C00F0E70020EEE70000F8B5CE46474680B5CD
:10588C000400170098460368002B20D0D0231B0679
:10589C001B785BB299462668EFF3108C72B63568AC
:1058AC00002DFCD0BFF35F8F04256557002D14DB52
:1058BC002368BFF35F8F00221A608CF310883800C6
:1058CC00414600F061F80028E5D000200FE00A4BBB
:1058DC000A4A0B48852100F05FF84B462371236878
:1058EC00BFF35F8F00221A608CF310880120C0BCBC
:1058FC00B946B046F8BDC046084B0010F85300102E
:10590C00D04A001070B582B0060015001C0001A929
:10591C00FFF78EFF002807D1019B5BB2D022120645
:10592C00127852B2934201D102B070BD2A0023000A
:10593C003000FFF7A1FFF7E710B50268EFF3108115
:10594C0072B61368002BFCD0BFF35F8F0423C356D1
:10595C00002B0ADBFF2303710368BFF35F8F002268
:10596C001A6081F3108840BF10BD034B034A0448F2
:10597C00B42100F011F8C0461C4B0010EC53001081
:10598C00D04A00107047C04601B40248844601BC9E
:10599C00604700BFD512001001B40248844601BC18
:1059AC00604700BF151E0010100000000000000032
:1059BC0000000100000000000000000000000200D8
:1059CC0000000000000000000000030000000000C8
:1059DC00000000000000FF000000000001B5486856
:1059EC0001318E460047704609380149884701BD90
:1059FC00110800109C020020000000001003002081
:105A0C005004002000000000000000006004002092
:105A1C00000000000000000010000000000000006A
:105A2C00503300004C33000054330000523300005C
:105A3C004D5300004D43000053340000433400002C
:105A4C009D43001000000000BD43001041440010B5
:105A5C0000000000000100000040044000000000B5
:105A6C000000000000000000C53F00102D310010A8
:0C5A7C002D380010953E0010E5020010CF
:04000005100001E9FD
:00000001FF
